{
  "contractName": "BLVD8",
  "abi": [
    {
      "constant": true,
      "inputs": [],
      "name": "name",
      "outputs": [
        {
          "name": "",
          "type": "string"
        }
      ],
      "payable": false,
      "stateMutability": "view",
      "type": "function"
    },
    {
      "constant": true,
      "inputs": [],
      "name": "totalSupply",
      "outputs": [
        {
          "name": "",
          "type": "uint256"
        }
      ],
      "payable": false,
      "stateMutability": "view",
      "type": "function"
    },
    {
      "constant": true,
      "inputs": [],
      "name": "maxMintable",
      "outputs": [
        {
          "name": "",
          "type": "uint256"
        }
      ],
      "payable": false,
      "stateMutability": "view",
      "type": "function"
    },
    {
      "constant": true,
      "inputs": [],
      "name": "decimals",
      "outputs": [
        {
          "name": "",
          "type": "uint8"
        }
      ],
      "payable": false,
      "stateMutability": "view",
      "type": "function"
    },
    {
      "constant": true,
      "inputs": [
        {
          "name": "",
          "type": "address"
        }
      ],
      "name": "balanceOf",
      "outputs": [
        {
          "name": "",
          "type": "uint256"
        }
      ],
      "payable": false,
      "stateMutability": "view",
      "type": "function"
    },
    {
      "constant": true,
      "inputs": [],
      "name": "limiter",
      "outputs": [
        {
          "name": "",
          "type": "uint256"
        }
      ],
      "payable": false,
      "stateMutability": "view",
      "type": "function"
    },
    {
      "constant": true,
      "inputs": [],
      "name": "oracle",
      "outputs": [
        {
          "name": "",
          "type": "address"
        }
      ],
      "payable": false,
      "stateMutability": "view",
      "type": "function"
    },
    {
      "constant": true,
      "inputs": [],
      "name": "owner",
      "outputs": [
        {
          "name": "",
          "type": "address"
        }
      ],
      "payable": false,
      "stateMutability": "view",
      "type": "function"
    },
    {
      "constant": true,
      "inputs": [],
      "name": "symbol",
      "outputs": [
        {
          "name": "",
          "type": "string"
        }
      ],
      "payable": false,
      "stateMutability": "view",
      "type": "function"
    },
    {
      "constant": true,
      "inputs": [],
      "name": "maintainer",
      "outputs": [
        {
          "name": "",
          "type": "address"
        }
      ],
      "payable": false,
      "stateMutability": "view",
      "type": "function"
    },
    {
      "constant": true,
      "inputs": [],
      "name": "totalMinted",
      "outputs": [
        {
          "name": "",
          "type": "uint256"
        }
      ],
      "payable": false,
      "stateMutability": "view",
      "type": "function"
    },
    {
      "constant": true,
      "inputs": [
        {
          "name": "",
          "type": "address"
        },
        {
          "name": "",
          "type": "address"
        }
      ],
      "name": "allowance",
      "outputs": [
        {
          "name": "",
          "type": "uint256"
        }
      ],
      "payable": false,
      "stateMutability": "view",
      "type": "function"
    },
    {
      "inputs": [],
      "payable": false,
      "stateMutability": "nonpayable",
      "type": "constructor"
    },
    {
      "payable": true,
      "stateMutability": "payable",
      "type": "fallback"
    },
    {
      "anonymous": false,
      "inputs": [
        {
          "indexed": true,
          "name": "_from",
          "type": "address"
        },
        {
          "indexed": true,
          "name": "_to",
          "type": "address"
        },
        {
          "indexed": false,
          "name": "_value",
          "type": "uint256"
        }
      ],
      "name": "Transfer",
      "type": "event"
    },
    {
      "anonymous": false,
      "inputs": [
        {
          "indexed": true,
          "name": "_owner",
          "type": "address"
        },
        {
          "indexed": true,
          "name": "_spender",
          "type": "address"
        },
        {
          "indexed": false,
          "name": "_value",
          "type": "uint256"
        }
      ],
      "name": "Approval",
      "type": "event"
    },
    {
      "anonymous": false,
      "inputs": [
        {
          "indexed": true,
          "name": "addr",
          "type": "address"
        },
        {
          "indexed": false,
          "name": "rewards",
          "type": "uint256"
        }
      ],
      "name": "RedeemPoints",
      "type": "event"
    },
    {
      "constant": false,
      "inputs": [
        {
          "name": "destination",
          "type": "address"
        },
        {
          "name": "amount",
          "type": "uint256"
        }
      ],
      "name": "transfer",
      "outputs": [
        {
          "name": "success",
          "type": "bool"
        }
      ],
      "payable": false,
      "stateMutability": "nonpayable",
      "type": "function"
    },
    {
      "constant": false,
      "inputs": [
        {
          "name": "from",
          "type": "address"
        },
        {
          "name": "to",
          "type": "address"
        },
        {
          "name": "amount",
          "type": "uint256"
        }
      ],
      "name": "transferFrom",
      "outputs": [
        {
          "name": "success",
          "type": "bool"
        }
      ],
      "payable": false,
      "stateMutability": "nonpayable",
      "type": "function"
    },
    {
      "constant": false,
      "inputs": [
        {
          "name": "spender",
          "type": "address"
        },
        {
          "name": "amount",
          "type": "uint256"
        }
      ],
      "name": "approve",
      "outputs": [
        {
          "name": "success",
          "type": "bool"
        }
      ],
      "payable": false,
      "stateMutability": "nonpayable",
      "type": "function"
    },
    {
      "constant": false,
      "inputs": [
        {
          "name": "contribution",
          "type": "string"
        }
      ],
      "name": "rewardByContribution",
      "outputs": [
        {
          "name": "reward",
          "type": "uint256"
        }
      ],
      "payable": false,
      "stateMutability": "nonpayable",
      "type": "function"
    },
    {
      "constant": false,
      "inputs": [
        {
          "name": "newOwner",
          "type": "address"
        }
      ],
      "name": "transferOwnership",
      "outputs": [],
      "payable": false,
      "stateMutability": "nonpayable",
      "type": "function"
    },
    {
      "constant": false,
      "inputs": [
        {
          "name": "newOracle",
          "type": "address"
        }
      ],
      "name": "changeOracle",
      "outputs": [],
      "payable": false,
      "stateMutability": "nonpayable",
      "type": "function"
    },
    {
      "constant": false,
      "inputs": [],
      "name": "removeOracle",
      "outputs": [],
      "payable": false,
      "stateMutability": "nonpayable",
      "type": "function"
    },
    {
      "constant": false,
      "inputs": [
        {
          "name": "newMaintainer",
          "type": "address"
        }
      ],
      "name": "changeMaintainer",
      "outputs": [],
      "payable": false,
      "stateMutability": "nonpayable",
      "type": "function"
    },
    {
      "constant": false,
      "inputs": [
        {
          "name": "rewards",
          "type": "uint256"
        },
        {
          "name": "destination",
          "type": "address"
        }
      ],
      "name": "redeemRewards",
      "outputs": [],
      "payable": false,
      "stateMutability": "nonpayable",
      "type": "function"
    },
    {
      "constant": true,
      "inputs": [
        {
          "name": "destination",
          "type": "address"
        }
      ],
      "name": "redeemedRewardsOf",
      "outputs": [
        {
          "name": "",
          "type": "uint256"
        }
      ],
      "payable": false,
      "stateMutability": "view",
      "type": "function"
    },
    {
      "constant": false,
      "inputs": [
        {
          "name": "amount",
          "type": "uint256"
        },
        {
          "name": "destination",
          "type": "address"
        }
      ],
      "name": "transferEthereum",
      "outputs": [],
      "payable": false,
      "stateMutability": "nonpayable",
      "type": "function"
    },
    {
      "constant": false,
      "inputs": [
        {
          "name": "token",
          "type": "address"
        },
        {
          "name": "amount",
          "type": "uint256"
        },
        {
          "name": "destination",
          "type": "address"
        }
      ],
      "name": "transferTokens",
      "outputs": [],
      "payable": false,
      "stateMutability": "nonpayable",
      "type": "function"
    }
  ],
  "bytecode": "0x60806040526000600755600560085534801561001a57600080fd5b5033600260006101000a81548173ffffffffffffffffffffffffffffffffffffffff021916908373ffffffffffffffffffffffffffffffffffffffff16021790555033600160006101000a81548173ffffffffffffffffffffffffffffffffffffffff021916908373ffffffffffffffffffffffffffffffffffffffff160217905550336000806101000a81548173ffffffffffffffffffffffffffffffffffffffff021916908373ffffffffffffffffffffffffffffffffffffffff160217905550601260ff16600a0a64012a05f200026003819055506121a0806101016000396000f30060806040526004361061013e576000357c0100000000000000000000000000000000000000000000000000000000900463ffffffff16806306fdde0314610140578063095ea7b3146101d057806318160ddd146102355780632154dc391461026057806323b872dd1461028b5780632413cba214610310578063313ce5671461038d5780633daf099f146103be57806347c421b51461040b5780634af350eb1461044e57806364b0b4a3146104bb57806370a082311461051257806374b87f67146105695780637dc0d1d0146105945780638da5cb5b146105eb57806395d89b41146106425780639850d32b146106d2578063a12ee7ba14610729578063a2309ff81461076c578063a9059cbb14610797578063c6323c26146107fc578063dab4655314610849578063dd62ed3e14610860578063f2fde38b146108d7575b005b34801561014c57600080fd5b5061015561091a565b6040518080602001828103825283818151815260200191508051906020019080838360005b8381101561019557808201518184015260208101905061017a565b50505050905090810190601f1680156101c25780820380516001836020036101000a031916815260200191505b509250505060405180910390f35b3480156101dc57600080fd5b5061021b600480360381019080803573ffffffffffffffffffffffffffffffffffffffff16906020019092919080359060200190929190505050610953565b604051808215151515815260200191505060405180910390f35b34801561024157600080fd5b5061024a610a45565b6040518082815260200191505060405180910390f35b34801561026c57600080fd5b50610275610a4b565b6040518082815260200191505060405180910390f35b34801561029757600080fd5b506102f6600480360381019080803573ffffffffffffffffffffffffffffffffffffffff169060200190929190803573ffffffffffffffffffffffffffffffffffffffff16906020019092919080359060200190929190505050610a51565b604051808215151515815260200191505060405180910390f35b34801561031c57600080fd5b50610377600480360381019080803590602001908201803590602001908080601f0160208091040260200160405190810160405280939291908181526020018383808284378201915050505050509192919290505050610d4c565b6040518082815260200191505060405180910390f35b34801561039957600080fd5b506103a2611512565b604051808260ff1660ff16815260200191505060405180910390f35b3480156103ca57600080fd5b5061040960048036038101908080359060200190929190803573ffffffffffffffffffffffffffffffffffffffff169060200190929190505050611517565b005b34801561041757600080fd5b5061044c600480360381019080803573ffffffffffffffffffffffffffffffffffffffff1690602001909291905050506115fc565b005b34801561045a57600080fd5b506104b9600480360381019080803573ffffffffffffffffffffffffffffffffffffffff16906020019092919080359060200190929190803573ffffffffffffffffffffffffffffffffffffffff169060200190929190505050611733565b005b3480156104c757600080fd5b506104fc600480360381019080803573ffffffffffffffffffffffffffffffffffffffff1690602001909291905050506118b7565b6040518082815260200191505060405180910390f35b34801561051e57600080fd5b50610553600480360381019080803573ffffffffffffffffffffffffffffffffffffffff169060200190929190505050611900565b6040518082815260200191505060405180910390f35b34801561057557600080fd5b5061057e611918565b6040518082815260200191505060405180910390f35b3480156105a057600080fd5b506105a961191e565b604051808273ffffffffffffffffffffffffffffffffffffffff1673ffffffffffffffffffffffffffffffffffffffff16815260200191505060405180910390f35b3480156105f757600080fd5b50610600611943565b604051808273ffffffffffffffffffffffffffffffffffffffff1673ffffffffffffffffffffffffffffffffffffffff16815260200191505060405180910390f35b34801561064e57600080fd5b50610657611969565b6040518080602001828103825283818151815260200191508051906020019080838360005b8381101561069757808201518184015260208101905061067c565b50505050905090810190601f1680156106c45780820380516001836020036101000a031916815260200191505b509250505060405180910390f35b3480156106de57600080fd5b506106e76119a2565b604051808273ffffffffffffffffffffffffffffffffffffffff1673ffffffffffffffffffffffffffffffffffffffff16815260200191505060405180910390f35b34801561073557600080fd5b5061076a600480360381019080803573ffffffffffffffffffffffffffffffffffffffff1690602001909291905050506119c8565b005b34801561077857600080fd5b50610781611a6a565b6040518082815260200191505060405180910390f35b3480156107a357600080fd5b506107e2600480360381019080803573ffffffffffffffffffffffffffffffffffffffff16906020019092919080359060200190929190505050611a70565b604051808215151515815260200191505060405180910390f35b34801561080857600080fd5b5061084760048036038101908080359060200190929190803573ffffffffffffffffffffffffffffffffffffffff169060200190929190505050611c58565b005b34801561085557600080fd5b5061085e611faf565b005b34801561086c57600080fd5b506108c1600480360381019080803573ffffffffffffffffffffffffffffffffffffffff169060200190929190803573ffffffffffffffffffffffffffffffffffffffff169060200190929190505050612050565b6040518082815260200191505060405180910390f35b3480156108e357600080fd5b50610918600480360381019080803573ffffffffffffffffffffffffffffffffffffffff169060200190929190505050612075565b005b6040805190810160405280600881526020017f426c76644465763800000000000000000000000000000000000000000000000081525081565b600081600660003373ffffffffffffffffffffffffffffffffffffffff1673ffffffffffffffffffffffffffffffffffffffff16815260200190815260200160002060008573ffffffffffffffffffffffffffffffffffffffff1673ffffffffffffffffffffffffffffffffffffffff168152602001908152602001600020819055508273ffffffffffffffffffffffffffffffffffffffff163373ffffffffffffffffffffffffffffffffffffffff167f8c5be1e5ebec7d5bd14f71427d1e84f3dd0314c0f7b2291e5b200ac8c7c3b925846040518082815260200191505060405180910390a36001905092915050565b60075481565b60035481565b600081600560008673ffffffffffffffffffffffffffffffffffffffff1673ffffffffffffffffffffffffffffffffffffffff1681526020019081526020016000205410158015610b1e575081600660008673ffffffffffffffffffffffffffffffffffffffff1673ffffffffffffffffffffffffffffffffffffffff16815260200190815260200160002060003373ffffffffffffffffffffffffffffffffffffffff1673ffffffffffffffffffffffffffffffffffffffff1681526020019081526020016000205410155b8015610ba95750600560008473ffffffffffffffffffffffffffffffffffffffff1673ffffffffffffffffffffffffffffffffffffffff1681526020019081526020016000205482600560008673ffffffffffffffffffffffffffffffffffffffff1673ffffffffffffffffffffffffffffffffffffffff1681526020019081526020016000205401115b15610d405781600560008673ffffffffffffffffffffffffffffffffffffffff1673ffffffffffffffffffffffffffffffffffffffff1681526020019081526020016000206000828254039250508190555081600660008673ffffffffffffffffffffffffffffffffffffffff1673ffffffffffffffffffffffffffffffffffffffff16815260200190815260200160002060003373ffffffffffffffffffffffffffffffffffffffff1673ffffffffffffffffffffffffffffffffffffffff1681526020019081526020016000206000828254039250508190555081600560008573ffffffffffffffffffffffffffffffffffffffff1673ffffffffffffffffffffffffffffffffffffffff168152602001908152602001600020600082825401925050819055508273ffffffffffffffffffffffffffffffffffffffff168473ffffffffffffffffffffffffffffffffffffffff167fddf252ad1be2c89b69c2b068fc378daa952ba7f163c4a11628f55a4df523b3ef846040518082815260200191505060405180910390a360019050610d45565b600090505b9392505050565b6000806000905060405180807f526566657272616c0000000000000000000000000000000000000000000000008152506008019050604051809103902060001916836040518082805190602001908083835b602083101515610dc35780518252602082019150602081019050602083039250610d9e565b6001836020036101000a0380198251168184511680821785525050505050509050019150506040518091039020600019161415610e06576023905080915061150c565b60405180807f5477697474657220536861726500000000000000000000000000000000000000815250600d019050604051809103902060001916836040518082805190602001908083835b602083101515610e765780518252602082019150602081019050602083039250610e51565b6001836020036101000a0380198251168184511680821785525050505050509050019150506040518091039020600019161415610eb9576005905080915061150c565b60405180807f4d6173746f646f6e205368617265000000000000000000000000000000000000815250600e019050604051809103902060001916836040518082805190602001908083835b602083101515610f295780518252602082019150602081019050602083039250610f04565b6001836020036101000a0380198251168184511680821785525050505050509050019150506040518091039020600019161415610f6c576005905080915061150c565b60405180807f41522044726976650000000000000000000000000000000000000000000000008152506008019050604051809103902060001916836040518082805190602001908083835b602083101515610fdc5780518252602082019150602081019050602083039250610fb7565b6001836020036101000a038019825116818451168082178552505050505050905001915050604051809103902060001916141561101f57600f905080915061150c565b60405180807f4d617020447269766500000000000000000000000000000000000000000000008152506009019050604051809103902060001916836040518082805190602001908083835b60208310151561108f578051825260208201915060208101905060208303925061106a565b6001836020036101000a03801982511681845116808217855250505050505090500191505060405180910390206000191614156110d257600a905080915061150c565b60405180807f4461736820447269766500000000000000000000000000000000000000000000815250600a019050604051809103902060001916836040518082805190602001908083835b602083101515611142578051825260208201915060208101905060208303925061111d565b6001836020036101000a038019825116818451168082178552505050505050905001915050604051809103902060001916141561118557600a905080915061150c565b60405180807f506f6c69636500000000000000000000000000000000000000000000000000008152506006019050604051809103902060001916836040518082805190602001908083835b6020831015156111f557805182526020820191506020810190506020830392506111d0565b6001836020036101000a038019825116818451168082178552505050505050905001915050604051809103902060001916141561123857600a905080915061150c565b60405180807f436c6f73757265000000000000000000000000000000000000000000000000008152506007019050604051809103902060001916836040518082805190602001908083835b6020831015156112a85780518252602082019150602081019050602083039250611283565b6001836020036101000a03801982511681845116808217855250505050505090500191505060405180910390206000191614156112eb57600f905080915061150c565b60405180807f48617a61726400000000000000000000000000000000000000000000000000008152506006019050604051809103902060001916836040518082805190602001908083835b60208310151561135b5780518252602082019150602081019050602083039250611336565b6001836020036101000a038019825116818451168082178552505050505050905001915050604051809103902060001916141561139e57600a905080915061150c565b60405180807f54726166666963000000000000000000000000000000000000000000000000008152506007019050604051809103902060001916836040518082805190602001908083835b60208310151561140e57805182526020820191506020810190506020830392506113e9565b6001836020036101000a0380198251168184511680821785525050505050509050019150506040518091039020600019161415611451576005905080915061150c565b60405180807f4163636964656e740000000000000000000000000000000000000000000000008152506008019050604051809103902060001916836040518082805190602001908083835b6020831015156114c1578051825260208201915060208101905060208303925061149c565b6001836020036101000a038019825116818451168082178552505050505050905001915050604051809103902060001916141561150457600a905080915061150c565b600590508091505b50919050565b601281565b600160009054906101000a900473ffffffffffffffffffffffffffffffffffffffff168073ffffffffffffffffffffffffffffffffffffffff163373ffffffffffffffffffffffffffffffffffffffff1614151561157457600080fd5b600073ffffffffffffffffffffffffffffffffffffffff168273ffffffffffffffffffffffffffffffffffffffff16141515156115b057600080fd5b8173ffffffffffffffffffffffffffffffffffffffff166108fc849081150290604051600060405180830381858888f193505050501580156115f6573d6000803e3d6000fd5b50505050565b600260009054906101000a900473ffffffffffffffffffffffffffffffffffffffff168073ffffffffffffffffffffffffffffffffffffffff163373ffffffffffffffffffffffffffffffffffffffff1614151561165957600080fd5b600073ffffffffffffffffffffffffffffffffffffffff166000809054906101000a900473ffffffffffffffffffffffffffffffffffffffff1673ffffffffffffffffffffffffffffffffffffffff16141580156116e45750600073ffffffffffffffffffffffffffffffffffffffff168273ffffffffffffffffffffffffffffffffffffffff1614155b15156116ef57600080fd5b816000806101000a81548173ffffffffffffffffffffffffffffffffffffffff021916908373ffffffffffffffffffffffffffffffffffffffff1602179055505050565b6000600160009054906101000a900473ffffffffffffffffffffffffffffffffffffffff168073ffffffffffffffffffffffffffffffffffffffff163373ffffffffffffffffffffffffffffffffffffffff1614151561179257600080fd5b600073ffffffffffffffffffffffffffffffffffffffff168373ffffffffffffffffffffffffffffffffffffffff16141515156117ce57600080fd5b8491508173ffffffffffffffffffffffffffffffffffffffff1663a9059cbb84866040518363ffffffff167c0100000000000000000000000000000000000000000000000000000000028152600401808373ffffffffffffffffffffffffffffffffffffffff1673ffffffffffffffffffffffffffffffffffffffff16815260200182815260200192505050602060405180830381600087803b15801561187457600080fd5b505af1158015611888573d6000803e3d6000fd5b505050506040513d602081101561189e57600080fd5b8101908080519060200190929190505050505050505050565b6000600960008373ffffffffffffffffffffffffffffffffffffffff1673ffffffffffffffffffffffffffffffffffffffff168152602001908152602001600020549050919050565b60056020528060005260406000206000915090505481565b60085481565b6000809054906101000a900473ffffffffffffffffffffffffffffffffffffffff1681565b600260009054906101000a900473ffffffffffffffffffffffffffffffffffffffff1681565b6040805190810160405280600481526020017f424c56440000000000000000000000000000000000000000000000000000000081525081565b600160009054906101000a900473ffffffffffffffffffffffffffffffffffffffff1681565b600260009054906101000a900473ffffffffffffffffffffffffffffffffffffffff168073ffffffffffffffffffffffffffffffffffffffff163373ffffffffffffffffffffffffffffffffffffffff16141515611a2557600080fd5b81600160006101000a81548173ffffffffffffffffffffffffffffffffffffffff021916908373ffffffffffffffffffffffffffffffffffffffff1602179055505050565b60045481565b600081600560003373ffffffffffffffffffffffffffffffffffffffff1673ffffffffffffffffffffffffffffffffffffffff1681526020019081526020016000205410158015611b405750600560008473ffffffffffffffffffffffffffffffffffffffff1673ffffffffffffffffffffffffffffffffffffffff1681526020019081526020016000205482600560008673ffffffffffffffffffffffffffffffffffffffff1673ffffffffffffffffffffffffffffffffffffffff1681526020019081526020016000205401115b15611c4d5781600560003373ffffffffffffffffffffffffffffffffffffffff1673ffffffffffffffffffffffffffffffffffffffff1681526020019081526020016000206000828254039250508190555081600560008573ffffffffffffffffffffffffffffffffffffffff1673ffffffffffffffffffffffffffffffffffffffff168152602001908152602001600020600082825401925050819055508273ffffffffffffffffffffffffffffffffffffffff163373ffffffffffffffffffffffffffffffffffffffff167fddf252ad1be2c89b69c2b068fc378daa952ba7f163c4a11628f55a4df523b3ef846040518082815260200191505060405180910390a360019050611c52565b600090505b92915050565b600080600060085485811515611c6a57fe5b049250600260009054906101000a900473ffffffffffffffffffffffffffffffffffffffff1673ffffffffffffffffffffffffffffffffffffffff163373ffffffffffffffffffffffffffffffffffffffff16141515611cc957600080fd5b600960008573ffffffffffffffffffffffffffffffffffffffff1673ffffffffffffffffffffffffffffffffffffffff1681526020019081526020016000205483111515611d1657600080fd5b600a60008573ffffffffffffffffffffffffffffffffffffffff1673ffffffffffffffffffffffffffffffffffffffff1681526020019081526020016000205443111515611d6357600080fd5b826004540191506003548211151515611d7b57600080fd5b600960008573ffffffffffffffffffffffffffffffffffffffff1673ffffffffffffffffffffffffffffffffffffffff1681526020019081526020016000205483039050611e08600560008673ffffffffffffffffffffffffffffffffffffffff1673ffffffffffffffffffffffffffffffffffffffff1681526020019081526020016000205482612153565b600560008673ffffffffffffffffffffffffffffffffffffffff1673ffffffffffffffffffffffffffffffffffffffff16815260200190815260200160002081905550611e5760075482612153565b60078190555082600960008673ffffffffffffffffffffffffffffffffffffffff1673ffffffffffffffffffffffffffffffffffffffff1681526020019081526020016000208190555043600a60008673ffffffffffffffffffffffffffffffffffffffff1673ffffffffffffffffffffffffffffffffffffffff16815260200190815260200160002081905550806004600082825401925050819055508373ffffffffffffffffffffffffffffffffffffffff167f62ff37c5ff2c8ff5d3fb3006b4c97ce96b5ca47b248926c80619c8d2cde51f5b826040518082815260200191505060405180910390a28373ffffffffffffffffffffffffffffffffffffffff163373ffffffffffffffffffffffffffffffffffffffff167fddf252ad1be2c89b69c2b068fc378daa952ba7f163c4a11628f55a4df523b3ef836040518082815260200191505060405180910390a35050505050565b600260009054906101000a900473ffffffffffffffffffffffffffffffffffffffff168073ffffffffffffffffffffffffffffffffffffffff163373ffffffffffffffffffffffffffffffffffffffff1614151561200c57600080fd5b60008060006101000a81548173ffffffffffffffffffffffffffffffffffffffff021916908373ffffffffffffffffffffffffffffffffffffffff16021790555050565b6006602052816000526040600020602052806000526040600020600091509150505481565b600260009054906101000a900473ffffffffffffffffffffffffffffffffffffffff168073ffffffffffffffffffffffffffffffffffffffff163373ffffffffffffffffffffffffffffffffffffffff161415156120d257600080fd5b600073ffffffffffffffffffffffffffffffffffffffff168273ffffffffffffffffffffffffffffffffffffffff161415151561210e57600080fd5b81600260006101000a81548173ffffffffffffffffffffffffffffffffffffffff021916908373ffffffffffffffffffffffffffffffffffffffff1602179055505050565b600080828401905083811015151561216a57600080fd5b80915050929150505600a165627a7a72305820251b9b6b2ff0f61f34012ba7ec13aa4bd8e9af37a25ed19d4be9d91d95e764600029",
  "source": "pragma solidity 0.4.24;\n\n\ncontract BLVD8{\n    //Development contract of utility functions within the BULVRD ecosystem\n    //https://bulvrdapp.com\n\n    //The oracle checks the authenticity of the rewards\n    address public oracle;\n    \n    //The maintainer is in charge of keeping the oracle running\n    address public maintainer;\n    \n    //The owner can replace the oracle or maintainer if they are compromised\n    address public owner;\n\n    //Set max tokens that can be minted\n    uint256 public maxMintable;\n\n    //Track total of tokens minted\n    uint256 public totalMinted;\n    \n    //ERC20 code\n    //See https://github.com/ethereum/EIPs/blob/e451b058521ba6ccd5d3205456f755b1d2d52bb8/EIPS/eip-20.md\n    mapping(address => uint) public balanceOf;\n    mapping(address => mapping (address => uint)) public allowance;\n    string public constant symbol = \"BLVD\";\n    string public constant name = \"BlvdDev8\";\n    uint8 public constant decimals = 18;\n    uint public totalSupply = 0;\n    uint public limiter = 5;\n    event Transfer(address indexed _from, address indexed _to, uint _value);\n    event Approval(address indexed _owner, address indexed _spender, uint _value);\n\n    //The Redeem event is activated when a BULVRD user redeems rewards\n    event RedeemPoints(address indexed addr, uint rewards);\n    //END OF ERC20 code\n \n    //Keep track of BULVRD users and their redeemed rewards\n    mapping(address => uint) redeemedRewards;\n    mapping(address => uint) latestWithdrawBlock;\n    \n    //Construct the contract\n    constructor() public {\n        owner = msg.sender;\n        maintainer = msg.sender;\n        oracle = msg.sender;\n        maxMintable = 5000000000 * 10**uint(decimals);\n    }\n    \n    //ERC20 code\n    //See https://github.com/ethereum/EIPs/blob/e451b058521ba6ccd5d3205456f755b1d2d52bb8/EIPS/eip-20.md\n    function transfer(address destination, uint amount) public returns (bool success) {\n        if (balanceOf[msg.sender] >= amount && \n            balanceOf[destination] + amount > balanceOf[destination]) {\n            balanceOf[msg.sender] -= amount;\n            balanceOf[destination] += amount;\n            emit Transfer(msg.sender, destination, amount);\n            return true;\n        } else {\n            return false;\n        }\n    }\n \n    function transferFrom (\n        address from,\n        address to,\n        uint amount\n    ) public returns (bool success) {\n        if (balanceOf[from] >= amount &&\n            allowance[from][msg.sender] >= amount &&\n            balanceOf[to] + amount > balanceOf[to]) \n        {\n            balanceOf[from] -= amount;\n            allowance[from][msg.sender] -= amount;\n            balanceOf[to] += amount;\n            emit Transfer(from, to, amount);\n            return true;\n        } else {\n            return false;\n        }\n    }\n \n    function approve(address spender, uint amount) public returns (bool success) {\n        allowance[msg.sender][spender] = amount;\n        emit Approval(msg.sender, spender, amount);\n        return true;\n    }\n    //END OF ERC20 code\n    \n    //Worker method for visiblity of rewards based on community contribution\n    function rewardByContribution(string contribution) public returns (uint reward) {\n        //(value / 5) = 1 BLVD Token\n        uint value = 0;\n        if (keccak256(contribution) == keccak256(\"Referral\")){\n            //For referral for a new user to the ecosystem\n            value = 35;\n            return value; \n        }else if (keccak256(contribution) == keccak256(\"Twitter Share\")){\n            //For every confirmed share of a new report to Twitter\n            value = 5;\n            return value; \n        }else if (keccak256(contribution) == keccak256(\"Mastodon Share\")){\n            //For every confirmed share of a new report to Mastodon\n            value = 5;\n            return value; \n        }else if (keccak256(contribution) == keccak256(\"AR Drive\")){\n            //For every 3300 meters driven in AR mode\n            value = 15;\n            return value; \n        }else if (keccak256(contribution) == keccak256(\"Map Drive\")){\n            //For every 3300 meters driven in Map mode\n            value = 10;\n            return value; \n        }else if (keccak256(contribution) == keccak256(\"Dash Drive\")){\n            //For every 3300 meters driven in Dash mode\n            value = 10;\n            return value; \n        }else if (keccak256(contribution) == keccak256(\"Police\")){\n            //For every community validated police report\n            value = 10;\n            return value; \n        }else if (keccak256(contribution) == keccak256(\"Closure\")){\n            //For every community validated road closure report\n            value = 15;\n            return value; \n        }else if (keccak256(contribution) == keccak256(\"Hazard\")){\n            //For every community validated road hazard report\n            value = 10;\n            return value; \n        }else if (keccak256(contribution) == keccak256(\"Traffic\")){\n            //For every community validated road traffic report\n            value = 5;\n            return value; \n        }else if (keccak256(contribution) == keccak256(\"Accident\")){\n            //For every community validated accident report\n            value = 10;\n            return value; \n        }else{\n            //All other report types in app\n            value = 5;\n            return value; \n        }\n        return value;\n    }\n    \n    //SafeAdd function from \n    //https://github.com/OpenZeppelin/zeppelin-solidity/blob/6ad275befb9b24177b2a6a72472673a28108937d/contracts/math/SafeMath.sol\n    function safeAdd(uint a, uint b) internal pure returns (uint) {\n        uint c = a + b;\n        require(c >= a);\n        return c;\n    }\n    \n    //Used to enforce permissions\n    modifier onlyBy(address account) {\n        require(msg.sender == account);\n        _;\n    }\n    \n    //The owner can transfer ownership\n    function transferOwnership(address newOwner) public onlyBy(owner) {\n        require(newOwner != address(0));\n        owner = newOwner;\n    }\n    \n    //The owner can change the oracle\n    //This works only if removeOracle() was never called\n    function changeOracle(address newOracle) public onlyBy(owner) {\n        require(oracle != address(0) && newOracle != address(0));\n        oracle = newOracle;\n    }\n\n    //The owner can remove the oracle\n    //This can not be reverted and stops the generation of new SnooKarma coins!\n    function removeOracle() public onlyBy(owner) {\n        oracle = address(0);\n    }\n    \n    //The owner can change the maintainer\n    function changeMaintainer(address newMaintainer) public onlyBy(owner) {\n        maintainer = newMaintainer;\n    }\n\n    struct IssuanceMessage {\n        address recipient;\n        uint amount;\n        uint issuanceBlock;\n    }\n    \n    //Allow address to redeem rewards verified from BULVRD\n    function redeemRewards(uint rewards, address destination) public {\n         //rewards to token conversion\n        uint256 reward = (rewards / limiter);\n        \n        //Must be owner \n        require(msg.sender == owner);\n        \n        //The signature must not be expired\n        // require(block.timestamp < sigExp);\n\n        //The amount of rewards needs to be more than the previous redeemed amount\n        require(reward > redeemedRewards[destination]);\n\n        //Make sure we have moved on since the last transaction of the give\n        require(block.number > latestWithdrawBlock[destination]);\n        //check if reward amount can be redeemed against supply\n        uint256 total = totalMinted + reward;\n        require(total <= maxMintable);\n\n        //The new rewards that is available to be redeemed\n        uint newUserRewards = reward - redeemedRewards[destination];\n        //The user's rewards balance is updated with the new rewards\n        balanceOf[destination] = safeAdd(balanceOf[destination], newUserRewards);\n        //The total supply (ERC20) is updated\n        totalSupply = safeAdd(totalSupply, newUserRewards);\n        //The amount of rewards redeemed by a user is updated\n        redeemedRewards[destination] = reward;\n        //Set block status for user transaction\n        latestWithdrawBlock[destination] = block.number;\n        //Add newly created tokens to totalMinted count\n        totalMinted += newUserRewards;\n        //The Redeem event is triggered\n        emit RedeemPoints(destination, newUserRewards);\n        //Update token holder balance on chain explorers\n        emit Transfer(msg.sender, destination, newUserRewards);\n    }\n    \n    //This function is a workaround because this.redeemedRewards cannot be public\n    //This is the limitation of the current Solidity compiler\n    function redeemedRewardsOf(address destination) public view returns(uint) {\n        return redeemedRewards[destination];\n    }\n    \n    //Receive donations\n    function() public payable {  }\n    \n    //Transfer donations or accidentally received Ethereum\n    function transferEthereum(uint amount, address destination) public onlyBy(maintainer) {\n        require(destination != address(0));\n        destination.transfer(amount);\n    }\n\n    //Transfer donations or accidentally received ERC20 tokens\n    function transferTokens(address token, uint amount, address destination) public onlyBy(maintainer) {\n        require(destination != address(0));\n        BLVD8 tokenContract = BLVD8(token);\n        tokenContract.transfer(destination, amount);\n    }\n \n}",
  "sourcePath": "/Users/davidhodge/Documents/Truffle/MetaCoin/contracts/BLVD8.sol",
  "compiler": {
    "name": "solc",
    "version": "0.4.24+commit.e67f0147.Emscripten.clang"
  },
  "schemaVersion": "2.0.1",
  "updatedAt": "2019-01-22T22:39:53.846Z"
}